{
  "_format": "hh-sol-artifact-1",
  "contractName": "BetTokenUpgradeable",
  "sourceName": "contracts/BetToken.sol",
  "deployedAddress": "0x4260C30720EDEd54Dc2ebD754c1b7C0479F116af",
  "abi": [
    {
      "inputs": [
        {
          "internalType": "address",
          "name": "target",
          "type": "address"
        }
      ],
      "name": "AddressEmptyCode",
      "type": "error"
    },
    {
      "inputs": [
        {
          "internalType": "address",
          "name": "implementation",
          "type": "address"
        }
      ],
      "name": "ERC1967InvalidImplementation",
      "type": "error"
    },
    {
      "inputs": [],
      "name": "ERC1967NonPayable",
      "type": "error"
    },
    {
      "inputs": [
        {
          "internalType": "address",
          "name": "spender",
          "type": "address"
        },
        {
          "internalType": "uint256",
          "name": "allowance",
          "type": "uint256"
        },
        {
          "internalType": "uint256",
          "name": "needed",
          "type": "uint256"
        }
      ],
      "name": "ERC20InsufficientAllowance",
      "type": "error"
    },
    {
      "inputs": [
        {
          "internalType": "address",
          "name": "sender",
          "type": "address"
        },
        {
          "internalType": "uint256",
          "name": "balance",
          "type": "uint256"
        },
        {
          "internalType": "uint256",
          "name": "needed",
          "type": "uint256"
        }
      ],
      "name": "ERC20InsufficientBalance",
      "type": "error"
    },
    {
      "inputs": [
        {
          "internalType": "address",
          "name": "approver",
          "type": "address"
        }
      ],
      "name": "ERC20InvalidApprover",
      "type": "error"
    },
    {
      "inputs": [
        {
          "internalType": "address",
          "name": "receiver",
          "type": "address"
        }
      ],
      "name": "ERC20InvalidReceiver",
      "type": "error"
    },
    {
      "inputs": [
        {
          "internalType": "address",
          "name": "sender",
          "type": "address"
        }
      ],
      "name": "ERC20InvalidSender",
      "type": "error"
    },
    {
      "inputs": [
        {
          "internalType": "address",
          "name": "spender",
          "type": "address"
        }
      ],
      "name": "ERC20InvalidSpender",
      "type": "error"
    },
    {
      "inputs": [],
      "name": "EnforcedPause",
      "type": "error"
    },
    {
      "inputs": [],
      "name": "ExpectedPause",
      "type": "error"
    },
    {
      "inputs": [],
      "name": "FailedInnerCall",
      "type": "error"
    },
    {
      "inputs": [],
      "name": "InvalidInitialization",
      "type": "error"
    },
    {
      "inputs": [],
      "name": "NotInitializing",
      "type": "error"
    },
    {
      "inputs": [
        {
          "internalType": "address",
          "name": "owner",
          "type": "address"
        }
      ],
      "name": "OwnableInvalidOwner",
      "type": "error"
    },
    {
      "inputs": [
        {
          "internalType": "address",
          "name": "account",
          "type": "address"
        }
      ],
      "name": "OwnableUnauthorizedAccount",
      "type": "error"
    },
    {
      "inputs": [],
      "name": "ReentrancyGuardReentrantCall",
      "type": "error"
    },
    {
      "inputs": [],
      "name": "UUPSUnauthorizedCallContext",
      "type": "error"
    },
    {
      "inputs": [
        {
          "internalType": "bytes32",
          "name": "slot",
          "type": "bytes32"
        }
      ],
      "name": "UUPSUnsupportedProxiableUUID",
      "type": "error"
    },
    {
      "anonymous": false,
      "inputs": [
        {
          "indexed": true,
          "internalType": "address",
          "name": "owner",
          "type": "address"
        },
        {
          "indexed": true,
          "internalType": "address",
          "name": "spender",
          "type": "address"
        },
        {
          "indexed": false,
          "internalType": "uint256",
          "name": "value",
          "type": "uint256"
        }
      ],
      "name": "Approval",
      "type": "event"
    },
    {
      "anonymous": false,
      "inputs": [
        {
          "indexed": false,
          "internalType": "uint64",
          "name": "version",
          "type": "uint64"
        }
      ],
      "name": "Initialized",
      "type": "event"
    },
    {
      "anonymous": false,
      "inputs": [
        {
          "indexed": true,
          "internalType": "address",
          "name": "previousOwner",
          "type": "address"
        },
        {
          "indexed": true,
          "internalType": "address",
          "name": "newOwner",
          "type": "address"
        }
      ],
      "name": "OwnershipTransferred",
      "type": "event"
    },
    {
      "anonymous": false,
      "inputs": [
        {
          "indexed": false,
          "internalType": "address",
          "name": "account",
          "type": "address"
        }
      ],
      "name": "Paused",
      "type": "event"
    },
    {
      "anonymous": false,
      "inputs": [
        {
          "indexed": true,
          "internalType": "address",
          "name": "tokenBuyer",
          "type": "address"
        },
        {
          "indexed": false,
          "internalType": "uint256",
          "name": "quantity",
          "type": "uint256"
        },
        {
          "indexed": false,
          "internalType": "uint256",
          "name": "contractBalance",
          "type": "uint256"
        }
      ],
      "name": "TokenMinted",
      "type": "event"
    },
    {
      "anonymous": false,
      "inputs": [
        {
          "indexed": true,
          "internalType": "address",
          "name": "from",
          "type": "address"
        },
        {
          "indexed": true,
          "internalType": "address",
          "name": "to",
          "type": "address"
        },
        {
          "indexed": false,
          "internalType": "uint256",
          "name": "value",
          "type": "uint256"
        }
      ],
      "name": "Transfer",
      "type": "event"
    },
    {
      "anonymous": false,
      "inputs": [
        {
          "indexed": false,
          "internalType": "address",
          "name": "account",
          "type": "address"
        }
      ],
      "name": "Unpaused",
      "type": "event"
    },
    {
      "anonymous": false,
      "inputs": [
        {
          "indexed": true,
          "internalType": "address",
          "name": "implementation",
          "type": "address"
        }
      ],
      "name": "Upgraded",
      "type": "event"
    },
    {
      "inputs": [],
      "name": "UPGRADE_INTERFACE_VERSION",
      "outputs": [
        {
          "internalType": "string",
          "name": "",
          "type": "string"
        }
      ],
      "stateMutability": "view",
      "type": "function"
    },
    {
      "inputs": [
        {
          "internalType": "address",
          "name": "owner",
          "type": "address"
        },
        {
          "internalType": "address",
          "name": "spender",
          "type": "address"
        }
      ],
      "name": "allowance",
      "outputs": [
        {
          "internalType": "uint256",
          "name": "",
          "type": "uint256"
        }
      ],
      "stateMutability": "view",
      "type": "function"
    },
    {
      "inputs": [
        {
          "internalType": "address",
          "name": "spender",
          "type": "address"
        },
        {
          "internalType": "uint256",
          "name": "value",
          "type": "uint256"
        }
      ],
      "name": "approve",
      "outputs": [
        {
          "internalType": "bool",
          "name": "",
          "type": "bool"
        }
      ],
      "stateMutability": "nonpayable",
      "type": "function"
    },
    {
      "inputs": [
        {
          "internalType": "address",
          "name": "account",
          "type": "address"
        }
      ],
      "name": "balanceOf",
      "outputs": [
        {
          "internalType": "uint256",
          "name": "",
          "type": "uint256"
        }
      ],
      "stateMutability": "view",
      "type": "function"
    },
    {
      "inputs": [],
      "name": "decimals",
      "outputs": [
        {
          "internalType": "uint8",
          "name": "",
          "type": "uint8"
        }
      ],
      "stateMutability": "view",
      "type": "function"
    },
    {
      "inputs": [],
      "name": "destroyContract",
      "outputs": [],
      "stateMutability": "nonpayable",
      "type": "function"
    },
    {
      "inputs": [
        {
          "internalType": "uint256",
          "name": "_amount",
          "type": "uint256"
        }
      ],
      "name": "exchange4Ether",
      "outputs": [],
      "stateMutability": "nonpayable",
      "type": "function"
    },
    {
      "inputs": [],
      "name": "initialize",
      "outputs": [],
      "stateMutability": "nonpayable",
      "type": "function"
    },
    {
      "inputs": [],
      "name": "name",
      "outputs": [
        {
          "internalType": "string",
          "name": "",
          "type": "string"
        }
      ],
      "stateMutability": "view",
      "type": "function"
    },
    {
      "inputs": [],
      "name": "owner",
      "outputs": [
        {
          "internalType": "address",
          "name": "",
          "type": "address"
        }
      ],
      "stateMutability": "view",
      "type": "function"
    },
    {
      "inputs": [],
      "name": "pause",
      "outputs": [],
      "stateMutability": "nonpayable",
      "type": "function"
    },
    {
      "inputs": [],
      "name": "paused",
      "outputs": [
        {
          "internalType": "bool",
          "name": "",
          "type": "bool"
        }
      ],
      "stateMutability": "view",
      "type": "function"
    },
    {
      "inputs": [],
      "name": "proxiableUUID",
      "outputs": [
        {
          "internalType": "bytes32",
          "name": "",
          "type": "bytes32"
        }
      ],
      "stateMutability": "view",
      "type": "function"
    },
    {
      "inputs": [],
      "name": "renounceOwnership",
      "outputs": [],
      "stateMutability": "nonpayable",
      "type": "function"
    },
    {
      "inputs": [],
      "name": "symbol",
      "outputs": [
        {
          "internalType": "string",
          "name": "",
          "type": "string"
        }
      ],
      "stateMutability": "view",
      "type": "function"
    },
    {
      "inputs": [],
      "name": "totalSupply",
      "outputs": [
        {
          "internalType": "uint256",
          "name": "",
          "type": "uint256"
        }
      ],
      "stateMutability": "view",
      "type": "function"
    },
    {
      "inputs": [
        {
          "internalType": "address",
          "name": "to",
          "type": "address"
        },
        {
          "internalType": "uint256",
          "name": "value",
          "type": "uint256"
        }
      ],
      "name": "transfer",
      "outputs": [
        {
          "internalType": "bool",
          "name": "",
          "type": "bool"
        }
      ],
      "stateMutability": "nonpayable",
      "type": "function"
    },
    {
      "inputs": [
        {
          "internalType": "address",
          "name": "from",
          "type": "address"
        },
        {
          "internalType": "address",
          "name": "to",
          "type": "address"
        },
        {
          "internalType": "uint256",
          "name": "value",
          "type": "uint256"
        }
      ],
      "name": "transferFrom",
      "outputs": [
        {
          "internalType": "bool",
          "name": "",
          "type": "bool"
        }
      ],
      "stateMutability": "nonpayable",
      "type": "function"
    },
    {
      "inputs": [
        {
          "internalType": "address",
          "name": "newOwner",
          "type": "address"
        }
      ],
      "name": "transferOwnership",
      "outputs": [],
      "stateMutability": "nonpayable",
      "type": "function"
    },
    {
      "inputs": [],
      "name": "unpause",
      "outputs": [],
      "stateMutability": "nonpayable",
      "type": "function"
    },
    {
      "inputs": [
        {
          "internalType": "address",
          "name": "newImplementation",
          "type": "address"
        },
        {
          "internalType": "bytes",
          "name": "data",
          "type": "bytes"
        }
      ],
      "name": "upgradeToAndCall",
      "outputs": [],
      "stateMutability": "payable",
      "type": "function"
    },
    {
      "stateMutability": "payable",
      "type": "receive"
    }
  ],
  "bytecode": "0x60a06040523073ffffffffffffffffffffffffffffffffffffffff1660809073ffffffffffffffffffffffffffffffffffffffff1681525034801561004357600080fd5b50608051612a5761006d600039600081816105100152818161056501526114330152612a576000f3fe60806040526004361061012e5760003560e01c80635c975abb116100ab5780638da5cb5b1161006f5780638da5cb5b146103ea57806395d89b4114610415578063a9059cbb14610440578063ad3cb1cc1461047d578063dd62ed3e146104a8578063f2fde38b146104e55761019f565b80635c975abb1461033d57806370a0823114610368578063715018a6146103a55780638129fc1c146103bc5780638456cb59146103d35761019f565b8063313ce567116100f2578063313ce5671461028b5780633ca0aab7146102b65780633f4ba83a146102df5780634f1ef286146102f657806352d1902d146103125761019f565b806306fdde03146101a4578063092a5cce146101cf578063095ea7b3146101e657806318160ddd1461022357806323b872dd1461024e5761019f565b3661019f5761013b61050e565b6101436105f4565b61014d3334610635565b3373ffffffffffffffffffffffffffffffffffffffff167f96234cb3d6c373a1aaa06497a540bc166d4b0359243a088eaf95e21d7253d0be3447604051610195929190611fc4565b60405180910390a2005b600080fd5b3480156101b057600080fd5b506101b96106b7565b6040516101c6919061207d565b60405180910390f35b3480156101db57600080fd5b506101e4610758565b005b3480156101f257600080fd5b5061020d6004803603810190610208919061213d565b610826565b60405161021a9190612198565b60405180910390f35b34801561022f57600080fd5b50610238610849565b60405161024591906121b3565b60405180910390f35b34801561025a57600080fd5b50610275600480360381019061027091906121ce565b610861565b6040516102829190612198565b60405180910390f35b34801561029757600080fd5b506102a0610890565b6040516102ad919061223d565b60405180910390f35b3480156102c257600080fd5b506102dd60048036038101906102d89190612258565b610899565b005b3480156102eb57600080fd5b506102f4610973565b005b610310600480360381019061030b91906123ba565b610985565b005b34801561031e57600080fd5b506103276109a4565b604051610334919061242f565b60405180910390f35b34801561034957600080fd5b506103526109d7565b60405161035f9190612198565b60405180910390f35b34801561037457600080fd5b5061038f600480360381019061038a919061244a565b6109fc565b60405161039c91906121b3565b60405180910390f35b3480156103b157600080fd5b506103ba610a53565b005b3480156103c857600080fd5b506103d1610a67565b005b3480156103df57600080fd5b506103e8610c81565b005b3480156103f657600080fd5b506103ff610c93565b60405161040c9190612486565b60405180910390f35b34801561042157600080fd5b5061042a610ccb565b604051610437919061207d565b60405180910390f35b34801561044c57600080fd5b506104676004803603810190610462919061213d565b610d6c565b6040516104749190612198565b60405180910390f35b34801561048957600080fd5b50610492610d8f565b60405161049f919061207d565b60405180910390f35b3480156104b457600080fd5b506104cf60048036038101906104ca91906124a1565b610dc8565b6040516104dc91906121b3565b60405180910390f35b3480156104f157600080fd5b5061050c6004803603810190610507919061244a565b610e5d565b005b7f000000000000000000000000000000000000000000000000000000000000000073ffffffffffffffffffffffffffffffffffffffff163073ffffffffffffffffffffffffffffffffffffffff1614806105bb57507f000000000000000000000000000000000000000000000000000000000000000073ffffffffffffffffffffffffffffffffffffffff166105a2610ee3565b73ffffffffffffffffffffffffffffffffffffffff1614155b156105f2576040517fe07c8dba00000000000000000000000000000000000000000000000000000000815260040160405180910390fd5b565b6105fc6109d7565b15610633576040517fd93c066500000000000000000000000000000000000000000000000000000000815260040160405180910390fd5b565b600073ffffffffffffffffffffffffffffffffffffffff168273ffffffffffffffffffffffffffffffffffffffff16036106a75760006040517fec442f0500000000000000000000000000000000000000000000000000000000815260040161069e9190612486565b60405180910390fd5b6106b360008383610f3a565b5050565b606060006106c3610f52565b90508060030180546106d490612510565b80601f016020809104026020016040519081016040528092919081815260200182805461070090612510565b801561074d5780601f106107225761010080835404028352916020019161074d565b820191906000526020600020905b81548152906001019060200180831161073057829003601f168201915b505050505091505090565b61076061050e565b610768610f7a565b6107706105f4565b600061077a610c93565b73ffffffffffffffffffffffffffffffffffffffff164760405161079d90612572565b60006040518083038185875af1925050503d80600081146107da576040519150601f19603f3d011682016040523d82523d6000602084013e6107df565b606091505b5050905080610823576040517f08c379a000000000000000000000000000000000000000000000000000000000815260040161081a906125d3565b60405180910390fd5b50565b600080610831611001565b905061083e818585611009565b600191505092915050565b600080610854610f52565b9050806002015491505090565b60008061086c611001565b905061087985828561101b565b6108848585856110af565b60019150509392505050565b60006012905090565b6108a16111a3565b6108a961050e565b6108b16105f4565b6108bb33826111fa565b60003373ffffffffffffffffffffffffffffffffffffffff16826040516108e190612572565b60006040518083038185875af1925050503d806000811461091e576040519150601f19603f3d011682016040523d82523d6000602084013e610923565b606091505b5050905080610967576040517f08c379a000000000000000000000000000000000000000000000000000000000815260040161095e906125d3565b60405180910390fd5b5061097061127c565b50565b61097b610f7a565b610983611295565b565b61098d61050e565b61099682611307565b6109a08282611312565b5050565b60006109ae611431565b7f360894a13ba1a3210667c828492db98dca3e2076cc3735a920a3ca505d382bbc60001b905090565b6000806109e26114b8565b90508060000160009054906101000a900460ff1691505090565b600080610a07610f52565b90508060000160008473ffffffffffffffffffffffffffffffffffffffff1673ffffffffffffffffffffffffffffffffffffffff16815260200190815260200160002054915050919050565b610a5b610f7a565b610a6560006114e0565b565b6000610a716115b7565b905060008160000160089054906101000a900460ff1615905060008260000160009054906101000a900467ffffffffffffffff1690506000808267ffffffffffffffff16148015610abf5750825b9050600060018367ffffffffffffffff16148015610af4575060003073ffffffffffffffffffffffffffffffffffffffff163b145b905081158015610b02575080155b15610b39576040517ff92ee8a900000000000000000000000000000000000000000000000000000000815260040160405180910390fd5b60018560000160006101000a81548167ffffffffffffffff021916908367ffffffffffffffff1602179055508315610b895760018560000160086101000a81548160ff0219169083151502179055505b610b9161050e565b610c056040518060400160405280600f81526020017f4d617463682042657420546f6b656e00000000000000000000000000000000008152506040518060400160405280600381526020017f4d425400000000000000000000000000000000000000000000000000000000008152506115df565b610c0e336115f5565b610c16611609565b610c1e61161b565b8315610c7a5760008560000160086101000a81548160ff0219169083151502179055507fc7f505b2f371ae2175ee4913f4499e1f2633a7b5936321eed1cdaeb6115181d26001604051610c71919061264c565b60405180910390a15b5050505050565b610c89610f7a565b610c9161162d565b565b600080610c9e61169f565b90508060000160009054906101000a900473ffffffffffffffffffffffffffffffffffffffff1691505090565b60606000610cd7610f52565b9050806004018054610ce890612510565b80601f0160208091040260200160405190810160405280929190818152602001828054610d1490612510565b8015610d615780601f10610d3657610100808354040283529160200191610d61565b820191906000526020600020905b815481529060010190602001808311610d4457829003601f168201915b505050505091505090565b600080610d77611001565b9050610d848185856110af565b600191505092915050565b6040518060400160405280600581526020017f352e302e3000000000000000000000000000000000000000000000000000000081525081565b600080610dd3610f52565b90508060010160008573ffffffffffffffffffffffffffffffffffffffff1673ffffffffffffffffffffffffffffffffffffffff16815260200190815260200160002060008473ffffffffffffffffffffffffffffffffffffffff1673ffffffffffffffffffffffffffffffffffffffff1681526020019081526020016000205491505092915050565b610e65610f7a565b600073ffffffffffffffffffffffffffffffffffffffff168173ffffffffffffffffffffffffffffffffffffffff1603610ed75760006040517f1e4fbdf7000000000000000000000000000000000000000000000000000000008152600401610ece9190612486565b60405180910390fd5b610ee0816114e0565b50565b6000610f117f360894a13ba1a3210667c828492db98dca3e2076cc3735a920a3ca505d382bbc60001b6116c7565b60000160009054906101000a900473ffffffffffffffffffffffffffffffffffffffff16905090565b610f426105f4565b610f4d8383836116d1565b505050565b60007f52c63247e1f47db19d5ce0460030c497f067ca4cebf71ba98eeadabe20bace00905090565b610f82611001565b73ffffffffffffffffffffffffffffffffffffffff16610fa0610c93565b73ffffffffffffffffffffffffffffffffffffffff1614610fff57610fc3611001565b6040517f118cdaa7000000000000000000000000000000000000000000000000000000008152600401610ff69190612486565b60405180910390fd5b565b600033905090565b6110168383836001611910565b505050565b60006110278484610dc8565b90507fffffffffffffffffffffffffffffffffffffffffffffffffffffffffffffffff81146110a95781811015611099578281836040517ffb8f41b200000000000000000000000000000000000000000000000000000000815260040161109093929190612667565b60405180910390fd5b6110a884848484036000611910565b5b50505050565b600073ffffffffffffffffffffffffffffffffffffffff168373ffffffffffffffffffffffffffffffffffffffff16036111215760006040517f96c6fd1e0000000000000000000000000000000000000000000000000000000081526004016111189190612486565b60405180910390fd5b600073ffffffffffffffffffffffffffffffffffffffff168273ffffffffffffffffffffffffffffffffffffffff16036111935760006040517fec442f0500000000000000000000000000000000000000000000000000000000815260040161118a9190612486565b60405180910390fd5b61119e838383610f3a565b505050565b60006111ad611af6565b905060028160000154036111ed576040517f3ee5aeb500000000000000000000000000000000000000000000000000000000815260040160405180910390fd5b6002816000018190555050565b600073ffffffffffffffffffffffffffffffffffffffff168273ffffffffffffffffffffffffffffffffffffffff160361126c5760006040517f96c6fd1e0000000000000000000000000000000000000000000000000000000081526004016112639190612486565b60405180910390fd5b61127882600083610f3a565b5050565b6000611286611af6565b90506001816000018190555050565b61129d611b1e565b60006112a76114b8565b905060008160000160006101000a81548160ff0219169083151502179055507f5db9ee0a495bf2e6ff9c91a7834c1ba4fdd244a5e8aa4e537bd38aeae4b073aa6112ef611001565b6040516112fc9190612486565b60405180910390a150565b61130f610f7a565b50565b8173ffffffffffffffffffffffffffffffffffffffff166352d1902d6040518163ffffffff1660e01b8152600401602060405180830381865afa92505050801561137a57506040513d601f19601f8201168201806040525081019061137791906126ca565b60015b6113bb57816040517f4c9c8ce30000000000000000000000000000000000000000000000000000000081526004016113b29190612486565b60405180910390fd5b7f360894a13ba1a3210667c828492db98dca3e2076cc3735a920a3ca505d382bbc60001b811461142257806040517faa1d49a4000000000000000000000000000000000000000000000000000000008152600401611419919061242f565b60405180910390fd5b61142c8383611b5e565b505050565b7f000000000000000000000000000000000000000000000000000000000000000073ffffffffffffffffffffffffffffffffffffffff163073ffffffffffffffffffffffffffffffffffffffff16146114b6576040517fe07c8dba00000000000000000000000000000000000000000000000000000000815260040160405180910390fd5b565b60007fcd5ed15c6e187e77e9aee88184c21f4f2182ab5827cb3b7e07fbedcd63f03300905090565b60006114ea61169f565b905060008160000160009054906101000a900473ffffffffffffffffffffffffffffffffffffffff169050828260000160006101000a81548173ffffffffffffffffffffffffffffffffffffffff021916908373ffffffffffffffffffffffffffffffffffffffff1602179055508273ffffffffffffffffffffffffffffffffffffffff168173ffffffffffffffffffffffffffffffffffffffff167f8be0079c531659141344cd1fd0a4f28419497f9722a3daafe3b4186f6b6457e060405160405180910390a3505050565b60007ff0c57e16840df040f15088dc2f81fe391c3923bec73e23a9662efc9c229c6a00905090565b6115e7611bd1565b6115f18282611c11565b5050565b6115fd611bd1565b61160681611c4e565b50565b611611611bd1565b611619611cd4565b565b611623611bd1565b61162b611cf5565b565b6116356105f4565b600061163f6114b8565b905060018160000160006101000a81548160ff0219169083151502179055507f62e78cea01bee320cd4e420270b5ea74000d11b0c9f74754ebdbfc544b05a258611687611001565b6040516116949190612486565b60405180910390a150565b60007f9016d09d72d40fdae2fd8ceac6b6234c7706214fd39c1cd1e609a0528c199300905090565b6000819050919050565b60006116db610f52565b9050600073ffffffffffffffffffffffffffffffffffffffff168473ffffffffffffffffffffffffffffffffffffffff160361173157818160020160008282546117259190612726565b9250508190555061180a565b60008160000160008673ffffffffffffffffffffffffffffffffffffffff1673ffffffffffffffffffffffffffffffffffffffff168152602001908152602001600020549050828110156117c0578481846040517fe450d38c0000000000000000000000000000000000000000000000000000000081526004016117b793929190612667565b60405180910390fd5b8281038260000160008773ffffffffffffffffffffffffffffffffffffffff1673ffffffffffffffffffffffffffffffffffffffff16815260200190815260200160002081905550505b600073ffffffffffffffffffffffffffffffffffffffff168373ffffffffffffffffffffffffffffffffffffffff1603611855578181600201600082825403925050819055506118a5565b818160000160008573ffffffffffffffffffffffffffffffffffffffff1673ffffffffffffffffffffffffffffffffffffffff168152602001908152602001600020600082825401925050819055505b8273ffffffffffffffffffffffffffffffffffffffff168473ffffffffffffffffffffffffffffffffffffffff167fddf252ad1be2c89b69c2b068fc378daa952ba7f163c4a11628f55a4df523b3ef8460405161190291906121b3565b60405180910390a350505050565b600061191a610f52565b9050600073ffffffffffffffffffffffffffffffffffffffff168573ffffffffffffffffffffffffffffffffffffffff160361198e5760006040517fe602df050000000000000000000000000000000000000000000000000000000081526004016119859190612486565b60405180910390fd5b600073ffffffffffffffffffffffffffffffffffffffff168473ffffffffffffffffffffffffffffffffffffffff1603611a005760006040517f94280d620000000000000000000000000000000000000000000000000000000081526004016119f79190612486565b60405180910390fd5b828160010160008773ffffffffffffffffffffffffffffffffffffffff1673ffffffffffffffffffffffffffffffffffffffff16815260200190815260200160002060008673ffffffffffffffffffffffffffffffffffffffff1673ffffffffffffffffffffffffffffffffffffffff168152602001908152602001600020819055508115611aef578373ffffffffffffffffffffffffffffffffffffffff168573ffffffffffffffffffffffffffffffffffffffff167f8c5be1e5ebec7d5bd14f71427d1e84f3dd0314c0f7b2291e5b200ac8c7c3b92585604051611ae691906121b3565b60405180910390a35b5050505050565b60007f9b779b17422d0df92223018b32b4d1fa46e071723d6817e2486d003becc55f00905090565b611b266109d7565b611b5c576040517f8dfc202b00000000000000000000000000000000000000000000000000000000815260040160405180910390fd5b565b611b6782611d29565b8173ffffffffffffffffffffffffffffffffffffffff167fbc7cd75a20ee27fd9adebab32041f755214dbc6bffa90cc0225b39da2e5c2d3b60405160405180910390a2600081511115611bc457611bbe8282611df6565b50611bcd565b611bcc611e7a565b5b5050565b611bd9611eb7565b611c0f576040517fd7e6bcf800000000000000000000000000000000000000000000000000000000815260040160405180910390fd5b565b611c19611bd1565b6000611c23610f52565b905082816003019081611c3691906128fc565b5081816004019081611c4891906128fc565b50505050565b611c56611bd1565b600073ffffffffffffffffffffffffffffffffffffffff168173ffffffffffffffffffffffffffffffffffffffff1603611cc85760006040517f1e4fbdf7000000000000000000000000000000000000000000000000000000008152600401611cbf9190612486565b60405180910390fd5b611cd1816114e0565b50565b611cdc611bd1565b6000611ce6611af6565b90506001816000018190555050565b611cfd611bd1565b6000611d076114b8565b905060008160000160006101000a81548160ff02191690831515021790555050565b60008173ffffffffffffffffffffffffffffffffffffffff163b03611d8557806040517f4c9c8ce3000000000000000000000000000000000000000000000000000000008152600401611d7c9190612486565b60405180910390fd5b80611db27f360894a13ba1a3210667c828492db98dca3e2076cc3735a920a3ca505d382bbc60001b6116c7565b60000160006101000a81548173ffffffffffffffffffffffffffffffffffffffff021916908373ffffffffffffffffffffffffffffffffffffffff16021790555050565b60606000808473ffffffffffffffffffffffffffffffffffffffff1684604051611e209190612a0a565b600060405180830381855af49150503d8060008114611e5b576040519150601f19603f3d011682016040523d82523d6000602084013e611e60565b606091505b5091509150611e70858383611ed7565b9250505092915050565b6000341115611eb5576040517fb398979f00000000000000000000000000000000000000000000000000000000815260040160405180910390fd5b565b6000611ec16115b7565b60000160089054906101000a900460ff16905090565b606082611eec57611ee782611f66565b611f5e565b60008251148015611f14575060008473ffffffffffffffffffffffffffffffffffffffff163b145b15611f5657836040517f9996b315000000000000000000000000000000000000000000000000000000008152600401611f4d9190612486565b60405180910390fd5b819050611f5f565b5b9392505050565b600081511115611f795780518082602001fd5b6040517f1425ea4200000000000000000000000000000000000000000000000000000000815260040160405180910390fd5b6000819050919050565b611fbe81611fab565b82525050565b6000604082019050611fd96000830185611fb5565b611fe66020830184611fb5565b9392505050565b600081519050919050565b600082825260208201905092915050565b60005b8381101561202757808201518184015260208101905061200c565b60008484015250505050565b6000601f19601f8301169050919050565b600061204f82611fed565b6120598185611ff8565b9350612069818560208601612009565b61207281612033565b840191505092915050565b600060208201905081810360008301526120978184612044565b905092915050565b6000604051905090565b600080fd5b600080fd5b600073ffffffffffffffffffffffffffffffffffffffff82169050919050565b60006120de826120b3565b9050919050565b6120ee816120d3565b81146120f957600080fd5b50565b60008135905061210b816120e5565b92915050565b61211a81611fab565b811461212557600080fd5b50565b60008135905061213781612111565b92915050565b60008060408385031215612154576121536120a9565b5b6000612162858286016120fc565b925050602061217385828601612128565b9150509250929050565b60008115159050919050565b6121928161217d565b82525050565b60006020820190506121ad6000830184612189565b92915050565b60006020820190506121c86000830184611fb5565b92915050565b6000806000606084860312156121e7576121e66120a9565b5b60006121f5868287016120fc565b9350506020612206868287016120fc565b925050604061221786828701612128565b9150509250925092565b600060ff82169050919050565b61223781612221565b82525050565b6000602082019050612252600083018461222e565b92915050565b60006020828403121561226e5761226d6120a9565b5b600061227c84828501612128565b91505092915050565b600080fd5b600080fd5b7f4e487b7100000000000000000000000000000000000000000000000000000000600052604160045260246000fd5b6122c782612033565b810181811067ffffffffffffffff821117156122e6576122e561228f565b5b80604052505050565b60006122f961209f565b905061230582826122be565b919050565b600067ffffffffffffffff8211156123255761232461228f565b5b61232e82612033565b9050602081019050919050565b82818337600083830152505050565b600061235d6123588461230a565b6122ef565b9050828152602081018484840111156123795761237861228a565b5b61238484828561233b565b509392505050565b600082601f8301126123a1576123a0612285565b5b81356123b184826020860161234a565b91505092915050565b600080604083850312156123d1576123d06120a9565b5b60006123df858286016120fc565b925050602083013567ffffffffffffffff811115612400576123ff6120ae565b5b61240c8582860161238c565b9150509250929050565b6000819050919050565b61242981612416565b82525050565b60006020820190506124446000830184612420565b92915050565b6000602082840312156124605761245f6120a9565b5b600061246e848285016120fc565b91505092915050565b612480816120d3565b82525050565b600060208201905061249b6000830184612477565b92915050565b600080604083850312156124b8576124b76120a9565b5b60006124c6858286016120fc565b92505060206124d7858286016120fc565b9150509250929050565b7f4e487b7100000000000000000000000000000000000000000000000000000000600052602260045260246000fd5b6000600282049050600182168061252857607f821691505b60208210810361253b5761253a6124e1565b5b50919050565b600081905092915050565b50565b600061255c600083612541565b91506125678261254c565b600082019050919050565b600061257d8261254f565b9150819050919050565b7f4661696c00000000000000000000000000000000000000000000000000000000600082015250565b60006125bd600483611ff8565b91506125c882612587565b602082019050919050565b600060208201905081810360008301526125ec816125b0565b9050919050565b6000819050919050565b600067ffffffffffffffff82169050919050565b6000819050919050565b600061263661263161262c846125f3565b612611565b6125fd565b9050919050565b6126468161261b565b82525050565b6000602082019050612661600083018461263d565b92915050565b600060608201905061267c6000830186612477565b6126896020830185611fb5565b6126966040830184611fb5565b949350505050565b6126a781612416565b81146126b257600080fd5b50565b6000815190506126c48161269e565b92915050565b6000602082840312156126e0576126df6120a9565b5b60006126ee848285016126b5565b91505092915050565b7f4e487b7100000000000000000000000000000000000000000000000000000000600052601160045260246000fd5b600061273182611fab565b915061273c83611fab565b9250828201905080821115612754576127536126f7565b5b92915050565b60008190508160005260206000209050919050565b60006020601f8301049050919050565b600082821b905092915050565b6000600883026127bc7fffffffffffffffffffffffffffffffffffffffffffffffffffffffffffffffff8261277f565b6127c6868361277f565b95508019841693508086168417925050509392505050565b60006127f96127f46127ef84611fab565b612611565b611fab565b9050919050565b6000819050919050565b612813836127de565b61282761281f82612800565b84845461278c565b825550505050565b600090565b61283c61282f565b61284781848461280a565b505050565b5b8181101561286b57612860600082612834565b60018101905061284d565b5050565b601f8211156128b0576128818161275a565b61288a8461276f565b81016020851015612899578190505b6128ad6128a58561276f565b83018261284c565b50505b505050565b600082821c905092915050565b60006128d3600019846008026128b5565b1980831691505092915050565b60006128ec83836128c2565b9150826002028217905092915050565b61290582611fed565b67ffffffffffffffff81111561291e5761291d61228f565b5b6129288254612510565b61293382828561286f565b600060209050601f8311600181146129665760008415612954578287015190505b61295e85826128e0565b8655506129c6565b601f1984166129748661275a565b60005b8281101561299c57848901518255600182019150602085019450602081019050612977565b868310156129b957848901516129b5601f8916826128c2565b8355505b6001600288020188555050505b505050505050565b600081519050919050565b60006129e4826129ce565b6129ee8185612541565b93506129fe818560208601612009565b80840191505092915050565b6000612a1682846129d9565b91508190509291505056fea2646970667358221220eb6e878a7bf6e134b4288ecca822b68c2f5063f21c265ae9a1c025e3d2c54f3864736f6c63430008180033",
  "linkReferences": {},
  "deployedLinkReferences": {}
}