{
  "_format": "hh-sol-artifact-1",
  "contractName": "Lock",
  "sourceName": "contracts/Lock.sol",
  "abi": [
    {
      "inputs": [
        {
          "internalType": "address",
          "name": "target",
          "type": "address"
        }
      ],
      "name": "AddressEmptyCode",
      "type": "error"
    },
    {
      "inputs": [
        {
          "internalType": "address",
          "name": "implementation",
          "type": "address"
        }
      ],
      "name": "ERC1967InvalidImplementation",
      "type": "error"
    },
    {
      "inputs": [],
      "name": "ERC1967NonPayable",
      "type": "error"
    },
    {
      "inputs": [],
      "name": "FailedInnerCall",
      "type": "error"
    },
    {
      "inputs": [],
      "name": "InvalidInitialization",
      "type": "error"
    },
    {
      "inputs": [],
      "name": "NotInitializing",
      "type": "error"
    },
    {
      "inputs": [
        {
          "internalType": "address",
          "name": "owner",
          "type": "address"
        }
      ],
      "name": "OwnableInvalidOwner",
      "type": "error"
    },
    {
      "inputs": [
        {
          "internalType": "address",
          "name": "account",
          "type": "address"
        }
      ],
      "name": "OwnableUnauthorizedAccount",
      "type": "error"
    },
    {
      "inputs": [],
      "name": "UUPSUnauthorizedCallContext",
      "type": "error"
    },
    {
      "inputs": [
        {
          "internalType": "bytes32",
          "name": "slot",
          "type": "bytes32"
        }
      ],
      "name": "UUPSUnsupportedProxiableUUID",
      "type": "error"
    },
    {
      "anonymous": false,
      "inputs": [
        {
          "indexed": false,
          "internalType": "uint64",
          "name": "version",
          "type": "uint64"
        }
      ],
      "name": "Initialized",
      "type": "event"
    },
    {
      "anonymous": false,
      "inputs": [
        {
          "indexed": true,
          "internalType": "address",
          "name": "previousOwner",
          "type": "address"
        },
        {
          "indexed": true,
          "internalType": "address",
          "name": "newOwner",
          "type": "address"
        }
      ],
      "name": "OwnershipTransferred",
      "type": "event"
    },
    {
      "anonymous": false,
      "inputs": [
        {
          "indexed": true,
          "internalType": "address",
          "name": "implementation",
          "type": "address"
        }
      ],
      "name": "Upgraded",
      "type": "event"
    },
    {
      "anonymous": false,
      "inputs": [
        {
          "indexed": false,
          "internalType": "uint256",
          "name": "amount",
          "type": "uint256"
        },
        {
          "indexed": false,
          "internalType": "uint256",
          "name": "when",
          "type": "uint256"
        }
      ],
      "name": "Withdrawal",
      "type": "event"
    },
    {
      "inputs": [],
      "name": "UPGRADE_INTERFACE_VERSION",
      "outputs": [
        {
          "internalType": "string",
          "name": "",
          "type": "string"
        }
      ],
      "stateMutability": "view",
      "type": "function"
    },
    {
      "inputs": [
        {
          "internalType": "uint256",
          "name": "_unlockTime",
          "type": "uint256"
        }
      ],
      "name": "initialize",
      "outputs": [],
      "stateMutability": "nonpayable",
      "type": "function"
    },
    {
      "inputs": [],
      "name": "owner",
      "outputs": [
        {
          "internalType": "address",
          "name": "",
          "type": "address"
        }
      ],
      "stateMutability": "view",
      "type": "function"
    },
    {
      "inputs": [],
      "name": "proxiableUUID",
      "outputs": [
        {
          "internalType": "bytes32",
          "name": "",
          "type": "bytes32"
        }
      ],
      "stateMutability": "view",
      "type": "function"
    },
    {
      "inputs": [],
      "name": "renounceOwnership",
      "outputs": [],
      "stateMutability": "nonpayable",
      "type": "function"
    },
    {
      "inputs": [
        {
          "internalType": "address",
          "name": "newOwner",
          "type": "address"
        }
      ],
      "name": "transferOwnership",
      "outputs": [],
      "stateMutability": "nonpayable",
      "type": "function"
    },
    {
      "inputs": [],
      "name": "unlockTime",
      "outputs": [
        {
          "internalType": "uint256",
          "name": "",
          "type": "uint256"
        }
      ],
      "stateMutability": "view",
      "type": "function"
    },
    {
      "inputs": [
        {
          "internalType": "address",
          "name": "newImplementation",
          "type": "address"
        },
        {
          "internalType": "bytes",
          "name": "data",
          "type": "bytes"
        }
      ],
      "name": "upgradeToAndCall",
      "outputs": [],
      "stateMutability": "payable",
      "type": "function"
    },
    {
      "inputs": [],
      "name": "withdraw",
      "outputs": [],
      "stateMutability": "nonpayable",
      "type": "function"
    }
  ],
  "bytecode": "0x60a06040523073ffffffffffffffffffffffffffffffffffffffff1660809073ffffffffffffffffffffffffffffffffffffffff1681525034801561004357600080fd5b5060805161141a61006d60003960008181610633015281816106880152610843015261141a6000f3fe6080604052600436106100865760003560e01c8063715018a611610059578063715018a6146101145780638da5cb5b1461012b578063ad3cb1cc14610156578063f2fde38b14610181578063fe4b84df146101aa57610086565b8063251c1aa31461008b5780633ccfd60b146100b65780634f1ef286146100cd57806352d1902d146100e9575b600080fd5b34801561009757600080fd5b506100a06101d3565b6040516100ad9190610e4a565b60405180910390f35b3480156100c257600080fd5b506100cb6101d9565b005b6100e760048036038101906100e2919061101d565b6102af565b005b3480156100f557600080fd5b506100fe6102ce565b60405161010b9190611092565b60405180910390f35b34801561012057600080fd5b50610129610301565b005b34801561013757600080fd5b50610140610315565b60405161014d91906110bc565b60405180910390f35b34801561016257600080fd5b5061016b61034d565b6040516101789190611156565b60405180910390f35b34801561018d57600080fd5b506101a860048036038101906101a39190611178565b610386565b005b3480156101b657600080fd5b506101d160048036038101906101cc91906111d1565b61040c565b005b60005481565b6101e16105aa565b600054421015610226576040517f08c379a000000000000000000000000000000000000000000000000000000000815260040161021d90611270565b60405180910390fd5b7fbf2ed60bd5b5965d685680c01195c9514e4382e28e3a5a2d2d5244bf59411b934742604051610257929190611290565b60405180910390a1610267610315565b73ffffffffffffffffffffffffffffffffffffffff166108fc479081150290604051600060405180830381858888f193505050501580156102ac573d6000803e3d6000fd5b50565b6102b7610631565b6102c082610717565b6102ca8282610722565b5050565b60006102d8610841565b7f360894a13ba1a3210667c828492db98dca3e2076cc3735a920a3ca505d382bbc60001b905090565b6103096105aa565b61031360006108c8565b565b60008061032061099f565b90508060000160009054906101000a900473ffffffffffffffffffffffffffffffffffffffff1691505090565b6040518060400160405280600581526020017f352e302e3000000000000000000000000000000000000000000000000000000081525081565b61038e6105aa565b600073ffffffffffffffffffffffffffffffffffffffff168173ffffffffffffffffffffffffffffffffffffffff16036104005760006040517f1e4fbdf70000000000000000000000000000000000000000000000000000000081526004016103f791906110bc565b60405180910390fd5b610409816108c8565b50565b60006104166109c7565b905060008160000160089054906101000a900460ff1615905060008260000160009054906101000a900467ffffffffffffffff1690506000808267ffffffffffffffff161480156104645750825b9050600060018367ffffffffffffffff16148015610499575060003073ffffffffffffffffffffffffffffffffffffffff163b145b9050811580156104a7575080155b156104de576040517ff92ee8a900000000000000000000000000000000000000000000000000000000815260040160405180910390fd5b60018560000160006101000a81548167ffffffffffffffff021916908367ffffffffffffffff160217905550831561052e5760018560000160086101000a81548160ff0219169083151502179055505b610537336109ef565b61053f610a03565b8560008190555083156105a25760008560000160086101000a81548160ff0219169083151502179055507fc7f505b2f371ae2175ee4913f4499e1f2633a7b5936321eed1cdaeb6115181d260016040516105999190611312565b60405180910390a15b505050505050565b6105b2610a0d565b73ffffffffffffffffffffffffffffffffffffffff166105d0610315565b73ffffffffffffffffffffffffffffffffffffffff161461062f576105f3610a0d565b6040517f118cdaa700000000000000000000000000000000000000000000000000000000815260040161062691906110bc565b60405180910390fd5b565b7f000000000000000000000000000000000000000000000000000000000000000073ffffffffffffffffffffffffffffffffffffffff163073ffffffffffffffffffffffffffffffffffffffff1614806106de57507f000000000000000000000000000000000000000000000000000000000000000073ffffffffffffffffffffffffffffffffffffffff166106c5610a15565b73ffffffffffffffffffffffffffffffffffffffff1614155b15610715576040517fe07c8dba00000000000000000000000000000000000000000000000000000000815260040160405180910390fd5b565b61071f6105aa565b50565b8173ffffffffffffffffffffffffffffffffffffffff166352d1902d6040518163ffffffff1660e01b8152600401602060405180830381865afa92505050801561078a57506040513d601f19601f820116820180604052508101906107879190611359565b60015b6107cb57816040517f4c9c8ce30000000000000000000000000000000000000000000000000000000081526004016107c291906110bc565b60405180910390fd5b7f360894a13ba1a3210667c828492db98dca3e2076cc3735a920a3ca505d382bbc60001b811461083257806040517faa1d49a40000000000000000000000000000000000000000000000000000000081526004016108299190611092565b60405180910390fd5b61083c8383610a6c565b505050565b7f000000000000000000000000000000000000000000000000000000000000000073ffffffffffffffffffffffffffffffffffffffff163073ffffffffffffffffffffffffffffffffffffffff16146108c6576040517fe07c8dba00000000000000000000000000000000000000000000000000000000815260040160405180910390fd5b565b60006108d261099f565b905060008160000160009054906101000a900473ffffffffffffffffffffffffffffffffffffffff169050828260000160006101000a81548173ffffffffffffffffffffffffffffffffffffffff021916908373ffffffffffffffffffffffffffffffffffffffff1602179055508273ffffffffffffffffffffffffffffffffffffffff168173ffffffffffffffffffffffffffffffffffffffff167f8be0079c531659141344cd1fd0a4f28419497f9722a3daafe3b4186f6b6457e060405160405180910390a3505050565b60007f9016d09d72d40fdae2fd8ceac6b6234c7706214fd39c1cd1e609a0528c199300905090565b60007ff0c57e16840df040f15088dc2f81fe391c3923bec73e23a9662efc9c229c6a00905090565b6109f7610adf565b610a0081610b1f565b50565b610a0b610adf565b565b600033905090565b6000610a437f360894a13ba1a3210667c828492db98dca3e2076cc3735a920a3ca505d382bbc60001b610ba5565b60000160009054906101000a900473ffffffffffffffffffffffffffffffffffffffff16905090565b610a7582610baf565b8173ffffffffffffffffffffffffffffffffffffffff167fbc7cd75a20ee27fd9adebab32041f755214dbc6bffa90cc0225b39da2e5c2d3b60405160405180910390a2600081511115610ad257610acc8282610c7c565b50610adb565b610ada610d00565b5b5050565b610ae7610d3d565b610b1d576040517fd7e6bcf800000000000000000000000000000000000000000000000000000000815260040160405180910390fd5b565b610b27610adf565b600073ffffffffffffffffffffffffffffffffffffffff168173ffffffffffffffffffffffffffffffffffffffff1603610b995760006040517f1e4fbdf7000000000000000000000000000000000000000000000000000000008152600401610b9091906110bc565b60405180910390fd5b610ba2816108c8565b50565b6000819050919050565b60008173ffffffffffffffffffffffffffffffffffffffff163b03610c0b57806040517f4c9c8ce3000000000000000000000000000000000000000000000000000000008152600401610c0291906110bc565b60405180910390fd5b80610c387f360894a13ba1a3210667c828492db98dca3e2076cc3735a920a3ca505d382bbc60001b610ba5565b60000160006101000a81548173ffffffffffffffffffffffffffffffffffffffff021916908373ffffffffffffffffffffffffffffffffffffffff16021790555050565b60606000808473ffffffffffffffffffffffffffffffffffffffff1684604051610ca691906113cd565b600060405180830381855af49150503d8060008114610ce1576040519150601f19603f3d011682016040523d82523d6000602084013e610ce6565b606091505b5091509150610cf6858383610d5d565b9250505092915050565b6000341115610d3b576040517fb398979f00000000000000000000000000000000000000000000000000000000815260040160405180910390fd5b565b6000610d476109c7565b60000160089054906101000a900460ff16905090565b606082610d7257610d6d82610dec565b610de4565b60008251148015610d9a575060008473ffffffffffffffffffffffffffffffffffffffff163b145b15610ddc57836040517f9996b315000000000000000000000000000000000000000000000000000000008152600401610dd391906110bc565b60405180910390fd5b819050610de5565b5b9392505050565b600081511115610dff5780518082602001fd5b6040517f1425ea4200000000000000000000000000000000000000000000000000000000815260040160405180910390fd5b6000819050919050565b610e4481610e31565b82525050565b6000602082019050610e5f6000830184610e3b565b92915050565b6000604051905090565b600080fd5b600080fd5b600073ffffffffffffffffffffffffffffffffffffffff82169050919050565b6000610ea482610e79565b9050919050565b610eb481610e99565b8114610ebf57600080fd5b50565b600081359050610ed181610eab565b92915050565b600080fd5b600080fd5b6000601f19601f8301169050919050565b7f4e487b7100000000000000000000000000000000000000000000000000000000600052604160045260246000fd5b610f2a82610ee1565b810181811067ffffffffffffffff82111715610f4957610f48610ef2565b5b80604052505050565b6000610f5c610e65565b9050610f688282610f21565b919050565b600067ffffffffffffffff821115610f8857610f87610ef2565b5b610f9182610ee1565b9050602081019050919050565b82818337600083830152505050565b6000610fc0610fbb84610f6d565b610f52565b905082815260208101848484011115610fdc57610fdb610edc565b5b610fe7848285610f9e565b509392505050565b600082601f83011261100457611003610ed7565b5b8135611014848260208601610fad565b91505092915050565b6000806040838503121561103457611033610e6f565b5b600061104285828601610ec2565b925050602083013567ffffffffffffffff81111561106357611062610e74565b5b61106f85828601610fef565b9150509250929050565b6000819050919050565b61108c81611079565b82525050565b60006020820190506110a76000830184611083565b92915050565b6110b681610e99565b82525050565b60006020820190506110d160008301846110ad565b92915050565b600081519050919050565b600082825260208201905092915050565b60005b838110156111115780820151818401526020810190506110f6565b60008484015250505050565b6000611128826110d7565b61113281856110e2565b93506111428185602086016110f3565b61114b81610ee1565b840191505092915050565b60006020820190508181036000830152611170818461111d565b905092915050565b60006020828403121561118e5761118d610e6f565b5b600061119c84828501610ec2565b91505092915050565b6111ae81610e31565b81146111b957600080fd5b50565b6000813590506111cb816111a5565b92915050565b6000602082840312156111e7576111e6610e6f565b5b60006111f5848285016111bc565b91505092915050565b7f596f752063616e2774207769746864726177207965742c20546f6f206561726c60008201527f7920746f20756e6c6f636b2e0000000000000000000000000000000000000000602082015250565b600061125a602c836110e2565b9150611265826111fe565b604082019050919050565b600060208201905081810360008301526112898161124d565b9050919050565b60006040820190506112a56000830185610e3b565b6112b26020830184610e3b565b9392505050565b6000819050919050565b600067ffffffffffffffff82169050919050565b6000819050919050565b60006112fc6112f76112f2846112b9565b6112d7565b6112c3565b9050919050565b61130c816112e1565b82525050565b60006020820190506113276000830184611303565b92915050565b61133681611079565b811461134157600080fd5b50565b6000815190506113538161132d565b92915050565b60006020828403121561136f5761136e610e6f565b5b600061137d84828501611344565b91505092915050565b600081519050919050565b600081905092915050565b60006113a782611386565b6113b18185611391565b93506113c18185602086016110f3565b80840191505092915050565b60006113d9828461139c565b91508190509291505056fea2646970667358221220ab5b4cb30b8dce2095da2ff218b34a753962baced6a2385e6a66ee204c5429aa64736f6c63430008180033",
  "linkReferences": {},
  "deployedLinkReferences": {}
}